{
  "contractName": "Case",
  "abi": [
    {
      "anonymous": false,
      "inputs": [
        {
          "indexed": false,
          "internalType": "bool",
          "name": "result",
          "type": "bool"
        }
      ],
      "name": "CaseExists",
      "type": "event"
    },
    {
      "anonymous": false,
      "inputs": [
        {
          "indexed": false,
          "internalType": "bool",
          "name": "result",
          "type": "bool"
        },
        {
          "indexed": false,
          "internalType": "uint256",
          "name": "id",
          "type": "uint256"
        }
      ],
      "name": "IsSuccessful",
      "type": "event"
    },
    {
      "anonymous": false,
      "inputs": [
        {
          "indexed": false,
          "internalType": "bool",
          "name": "result",
          "type": "bool"
        }
      ],
      "name": "IsSuccessful_Evidence",
      "type": "event"
    },
    {
      "anonymous": false,
      "inputs": [
        {
          "indexed": false,
          "internalType": "bool",
          "name": "result",
          "type": "bool"
        }
      ],
      "name": "IsSuccessful_Investigator",
      "type": "event"
    },
    {
      "inputs": [
        {
          "internalType": "uint256",
          "name": "",
          "type": "uint256"
        }
      ],
      "name": "adminCountList",
      "outputs": [
        {
          "internalType": "address",
          "name": "walletAddress",
          "type": "address"
        },
        {
          "internalType": "string",
          "name": "fullName",
          "type": "string"
        },
        {
          "internalType": "string",
          "name": "email",
          "type": "string"
        },
        {
          "internalType": "uint256",
          "name": "mobile",
          "type": "uint256"
        },
        {
          "internalType": "string",
          "name": "dob",
          "type": "string"
        }
      ],
      "stateMutability": "view",
      "type": "function",
      "constant": true
    },
    {
      "inputs": [],
      "name": "adminCounter",
      "outputs": [
        {
          "internalType": "uint256",
          "name": "",
          "type": "uint256"
        }
      ],
      "stateMutability": "view",
      "type": "function",
      "constant": true
    },
    {
      "inputs": [
        {
          "internalType": "address",
          "name": "_walletAddress",
          "type": "address"
        }
      ],
      "name": "adminExists",
      "outputs": [
        {
          "internalType": "bool",
          "name": "",
          "type": "bool"
        }
      ],
      "stateMutability": "view",
      "type": "function",
      "constant": true
    },
    {
      "inputs": [
        {
          "internalType": "address",
          "name": "",
          "type": "address"
        }
      ],
      "name": "adminList",
      "outputs": [
        {
          "internalType": "address",
          "name": "walletAddress",
          "type": "address"
        },
        {
          "internalType": "string",
          "name": "fullName",
          "type": "string"
        },
        {
          "internalType": "string",
          "name": "email",
          "type": "string"
        },
        {
          "internalType": "uint256",
          "name": "mobile",
          "type": "uint256"
        },
        {
          "internalType": "string",
          "name": "dob",
          "type": "string"
        }
      ],
      "stateMutability": "view",
      "type": "function",
      "constant": true
    },
    {
      "inputs": [],
      "name": "caseId",
      "outputs": [
        {
          "internalType": "uint256",
          "name": "",
          "type": "uint256"
        }
      ],
      "stateMutability": "view",
      "type": "function",
      "constant": true
    },
    {
      "inputs": [
        {
          "internalType": "uint256",
          "name": "",
          "type": "uint256"
        }
      ],
      "name": "caseList",
      "outputs": [
        {
          "internalType": "uint256",
          "name": "caseNum",
          "type": "uint256"
        },
        {
          "internalType": "string",
          "name": "caseName",
          "type": "string"
        },
        {
          "internalType": "string",
          "name": "caseDesc",
          "type": "string"
        },
        {
          "internalType": "address",
          "name": "creator",
          "type": "address"
        },
        {
          "internalType": "string",
          "name": "creationTime",
          "type": "string"
        },
        {
          "internalType": "bool",
          "name": "closed",
          "type": "bool"
        }
      ],
      "stateMutability": "view",
      "type": "function",
      "constant": true
    },
    {
      "inputs": [
        {
          "internalType": "string",
          "name": "_caseName",
          "type": "string"
        },
        {
          "internalType": "string",
          "name": "_caseDesc",
          "type": "string"
        },
        {
          "internalType": "address",
          "name": "_caseInvestigator",
          "type": "address"
        },
        {
          "internalType": "address",
          "name": "_caseCreator",
          "type": "address"
        },
        {
          "internalType": "string",
          "name": "_creationTime",
          "type": "string"
        }
      ],
      "name": "openNewCase",
      "outputs": [],
      "stateMutability": "nonpayable",
      "type": "function"
    },
    {
      "inputs": [
        {
          "internalType": "uint256",
          "name": "_caseId",
          "type": "uint256"
        }
      ],
      "name": "caseExists",
      "outputs": [
        {
          "internalType": "bool",
          "name": "",
          "type": "bool"
        }
      ],
      "stateMutability": "view",
      "type": "function",
      "constant": true
    },
    {
      "inputs": [
        {
          "internalType": "uint256",
          "name": "_caseId",
          "type": "uint256"
        }
      ],
      "name": "getCaseName",
      "outputs": [
        {
          "internalType": "string",
          "name": "",
          "type": "string"
        }
      ],
      "stateMutability": "view",
      "type": "function",
      "constant": true
    },
    {
      "inputs": [
        {
          "internalType": "uint256",
          "name": "_caseId",
          "type": "uint256"
        },
        {
          "internalType": "address",
          "name": "_walletAddress",
          "type": "address"
        }
      ],
      "name": "activeCases",
      "outputs": [
        {
          "internalType": "uint256",
          "name": "",
          "type": "uint256"
        },
        {
          "internalType": "string",
          "name": "",
          "type": "string"
        },
        {
          "internalType": "string",
          "name": "",
          "type": "string"
        },
        {
          "internalType": "address",
          "name": "",
          "type": "address"
        },
        {
          "internalType": "string",
          "name": "",
          "type": "string"
        },
        {
          "internalType": "bool",
          "name": "",
          "type": "bool"
        }
      ],
      "stateMutability": "view",
      "type": "function",
      "constant": true
    },
    {
      "inputs": [
        {
          "internalType": "uint256",
          "name": "_caseId",
          "type": "uint256"
        }
      ],
      "name": "closeCase",
      "outputs": [],
      "stateMutability": "nonpayable",
      "type": "function"
    },
    {
      "inputs": [
        {
          "internalType": "uint256",
          "name": "_caseId",
          "type": "uint256"
        },
        {
          "internalType": "address",
          "name": "_investigator",
          "type": "address"
        }
      ],
      "name": "addCaseInvestigator",
      "outputs": [],
      "stateMutability": "nonpayable",
      "type": "function"
    },
    {
      "inputs": [
        {
          "internalType": "uint256",
          "name": "_caseId",
          "type": "uint256"
        },
        {
          "internalType": "address",
          "name": "_investigator",
          "type": "address"
        }
      ],
      "name": "removeCaseInvestigator",
      "outputs": [],
      "stateMutability": "nonpayable",
      "type": "function"
    },
    {
      "inputs": [
        {
          "internalType": "uint256",
          "name": "_caseId",
          "type": "uint256"
        }
      ],
      "name": "getCaseInvestigators",
      "outputs": [
        {
          "internalType": "address[]",
          "name": "",
          "type": "address[]"
        },
        {
          "internalType": "uint256",
          "name": "",
          "type": "uint256"
        }
      ],
      "stateMutability": "view",
      "type": "function",
      "constant": true
    },
    {
      "inputs": [
        {
          "internalType": "uint256",
          "name": "_caseId",
          "type": "uint256"
        },
        {
          "internalType": "address",
          "name": "_walletAddress",
          "type": "address"
        }
      ],
      "name": "invExistsInCase",
      "outputs": [
        {
          "internalType": "bool",
          "name": "",
          "type": "bool"
        }
      ],
      "stateMutability": "view",
      "type": "function",
      "constant": true
    },
    {
      "inputs": [
        {
          "internalType": "uint256",
          "name": "_caseId",
          "type": "uint256"
        },
        {
          "internalType": "bytes",
          "name": "_evidenceHash",
          "type": "bytes"
        },
        {
          "internalType": "string",
          "name": "_evidenceName",
          "type": "string"
        },
        {
          "internalType": "string",
          "name": "_evidenceDesc",
          "type": "string"
        },
        {
          "internalType": "address",
          "name": "_creator",
          "type": "address"
        },
        {
          "internalType": "string",
          "name": "_dateCreated",
          "type": "string"
        }
      ],
      "name": "addCaseEvidence",
      "outputs": [],
      "stateMutability": "nonpayable",
      "type": "function"
    },
    {
      "inputs": [
        {
          "internalType": "uint256",
          "name": "_caseId",
          "type": "uint256"
        },
        {
          "internalType": "uint256",
          "name": "_evidenceId",
          "type": "uint256"
        }
      ],
      "name": "getCaseEvidenceCollapsed",
      "outputs": [
        {
          "internalType": "bytes",
          "name": "",
          "type": "bytes"
        },
        {
          "internalType": "string",
          "name": "",
          "type": "string"
        },
        {
          "internalType": "string",
          "name": "",
          "type": "string"
        },
        {
          "internalType": "bool",
          "name": "",
          "type": "bool"
        }
      ],
      "stateMutability": "view",
      "type": "function",
      "constant": true
    },
    {
      "inputs": [
        {
          "internalType": "uint256",
          "name": "_caseId",
          "type": "uint256"
        },
        {
          "internalType": "uint256",
          "name": "_evidenceId",
          "type": "uint256"
        }
      ],
      "name": "getCaseEvidenceExpanded",
      "outputs": [
        {
          "internalType": "bytes",
          "name": "",
          "type": "bytes"
        },
        {
          "internalType": "string",
          "name": "",
          "type": "string"
        },
        {
          "internalType": "string",
          "name": "",
          "type": "string"
        },
        {
          "internalType": "address",
          "name": "",
          "type": "address"
        },
        {
          "internalType": "string",
          "name": "",
          "type": "string"
        }
      ],
      "stateMutability": "view",
      "type": "function",
      "constant": true
    },
    {
      "inputs": [
        {
          "internalType": "uint256",
          "name": "_caseId",
          "type": "uint256"
        },
        {
          "internalType": "uint256",
          "name": "_evidenceId",
          "type": "uint256"
        }
      ],
      "name": "getEvidenceHash",
      "outputs": [
        {
          "internalType": "bytes",
          "name": "",
          "type": "bytes"
        }
      ],
      "stateMutability": "view",
      "type": "function",
      "constant": true
    },
    {
      "inputs": [
        {
          "internalType": "uint256",
          "name": "_caseId",
          "type": "uint256"
        }
      ],
      "name": "evidenceCount",
      "outputs": [
        {
          "internalType": "uint256",
          "name": "",
          "type": "uint256"
        }
      ],
      "stateMutability": "view",
      "type": "function",
      "constant": true
    },
    {
      "inputs": [
        {
          "internalType": "uint256",
          "name": "_caseId",
          "type": "uint256"
        },
        {
          "internalType": "uint256",
          "name": "_evidenceId",
          "type": "uint256"
        }
      ],
      "name": "getCurrentOwner",
      "outputs": [
        {
          "internalType": "address",
          "name": "",
          "type": "address"
        }
      ],
      "stateMutability": "view",
      "type": "function",
      "constant": true
    },
    {
      "inputs": [
        {
          "internalType": "uint256",
          "name": "_caseId",
          "type": "uint256"
        },
        {
          "internalType": "uint256",
          "name": "_evidenceId",
          "type": "uint256"
        },
        {
          "internalType": "address",
          "name": "_transferTo",
          "type": "address"
        },
        {
          "internalType": "string",
          "name": "_transferDesc",
          "type": "string"
        },
        {
          "internalType": "string",
          "name": "_transferTime",
          "type": "string"
        }
      ],
      "name": "transferEvidence",
      "outputs": [],
      "stateMutability": "nonpayable",
      "type": "function"
    },
    {
      "inputs": [
        {
          "internalType": "uint256",
          "name": "_caseId",
          "type": "uint256"
        },
        {
          "internalType": "uint256",
          "name": "_evidenceId",
          "type": "uint256"
        }
      ],
      "name": "viewChainOfCustody",
      "outputs": [
        {
          "internalType": "uint256",
          "name": "",
          "type": "uint256"
        },
        {
          "internalType": "string",
          "name": "",
          "type": "string"
        },
        {
          "internalType": "bytes",
          "name": "",
          "type": "bytes"
        },
        {
          "internalType": "address[]",
          "name": "",
          "type": "address[]"
        },
        {
          "internalType": "string[]",
          "name": "",
          "type": "string[]"
        },
        {
          "internalType": "string[]",
          "name": "",
          "type": "string[]"
        }
      ],
      "stateMutability": "view",
      "type": "function",
      "constant": true
    },
    {
      "inputs": [
        {
          "internalType": "uint256",
          "name": "_caseId",
          "type": "uint256"
        },
        {
          "internalType": "uint256",
          "name": "_evidenceId",
          "type": "uint256"
        }
      ],
      "name": "deleteEvidence",
      "outputs": [],
      "stateMutability": "nonpayable",
      "type": "function"
    }
  ],
  "bytecode": "0x60806040523480156200001157600080fd5b50620000be73ed2de21f55fb1c2fd8d56f1cf2a33998030dc9ac6040518060400160405280600f81526020016e4368726973746f732042616e64697360881b8152506040518060400160405280601481526020017f6368722e62616e64697340676d61696c2e636f6d00000000000000000000000081525064019fae7a636040518060400160405280600a8152602001690313939372d30322d32360b41b8152506200020060201b60201c565b6200015c73038573b4588805551f475d737dad9b91b5a170256040518060400160405280600d81526020016c41646d696e204e6f64654f6e6560981b8152506040518060400160405280601181526020017061646d696e406e6f64656f6e652e636f6d60781b8152506401a13b85ff6040518060400160405280600a815260200169313939372d30312d303160b01b8152506200020060201b60201c565b620001fa7386f565572b9331025cc5a0861cd6f4a3d7b134df6040518060400160405280600d81526020016c41646d696e204e6f646554776f60981b8152506040518060400160405280601181526020017061646d696e406e6f646574776f2e636f6d60781b81525064019b45a5006040518060400160405280600a815260200169189c9c9b96981896981960b11b8152506200020060201b60201c565b620004d2565b6001600160a01b038516600081815260016020819052604090912080546001600160a01b031916909217825501620002398582620003de565b506001600160a01b0385166000908152600160205260409020600201620002618482620003de565b506001600160a01b038516600090815260016020526040902060038101839055600401620002908282620003de565b506000805481526002602052604080822080546001600160a01b0319166001600160a01b038916179055815482529020600101620002cf8582620003de565b5060008054815260026020819052604090912001620002ef8482620003de565b50600080548152600260205260408082206003018490558154825290206004016200031b8282620003de565b506000805490806200032d83620004aa565b91905055505050505050565b634e487b7160e01b600052604160045260246000fd5b600181811c908216806200036457607f821691505b6020821081036200038557634e487b7160e01b600052602260045260246000fd5b50919050565b601f821115620003d957600081815260208120601f850160051c81016020861015620003b45750805b601f850160051c820191505b81811015620003d557828155600101620003c0565b5050505b505050565b81516001600160401b03811115620003fa57620003fa62000339565b62000412816200040b84546200034f565b846200038b565b602080601f8311600181146200044a5760008415620004315750858301515b600019600386901b1c1916600185901b178555620003d5565b600085815260208120601f198616915b828110156200047b578886015182559484019460019091019084016200045a565b50858210156200049a5787850151600019600388901b60f8161c191681555b5050505050600190811b01905550565b600060018201620004cb57634e487b7160e01b600052601160045260246000fd5b5060010190565b613c0f80620004e26000396000f3fe608060405234801561001057600080fd5b50600436106101585760003560e01c80639998cac5116100c3578063c4e63e4b1161007c578063c4e63e4b14610339578063cec37c431461034c578063d469110e14610377578063d758881e1461039a578063e739af8c146103bf578063fea201bc146103d257600080fd5b80639998cac5146102a75780639be2d095146102ba578063a3970348146102cd578063a93c9eb0146102e0578063bb69350d14610301578063c4bcf32c1461032657600080fd5b80633071388611610115578063307138861461020d5780633698a882146102385780633ffad9121461024b5780634cd007f11461025e5780634f4c4404146102715780635a2ee8e91461029457600080fd5b80630a9b2fec1461015d5780630b31a3e01461018a5780631dcb5d0a146101aa57806327304dfd146101bf578063281fea5c146101e35780632d77022b146101f6575b600080fd5b61017061016b3660046133cd565b6103db565b604051610181959493929190613435565b60405180910390f35b61019d6101983660046133cd565b6108d8565b604051610181919061349d565b6101bd6101b8366004613571565b610db1565b005b6101d26101cd366004613637565b610f53565b604051610181959493929190613652565b6101bd6101f13660046136a2565b611125565b6101ff60035481565b604051908152602001610181565b6101ff61021b3660046136ce565b600090815260046020908152604080832060060190915290205490565b6101bd6102463660046136e7565b611278565b6101bd6102593660046136ce565b611457565b6101bd61026c3660046136a2565b611684565b61028461027f3660046136ce565b61172d565b6040519015158152602001610181565b6101d26102a23660046136ce565b611750565b6101bd6102b5366004613791565b61177c565b6102846102c8366004613637565b611899565b6101bd6102db3660046133cd565b6118cb565b6102f36102ee3660046136ce565b611afc565b60405161018192919061382d565b61031461030f3660046136ce565b611c23565b6040516101819695949392919061384f565b6102846103343660046136a2565b611e02565b61019d6103473660046136ce565b611ed1565b61035f61035a3660046133cd565b611f76565b6040516001600160a01b039091168152602001610181565b61038a6103853660046133cd565b61247d565b60405161018194939291906138b3565b6103ad6103a83660046133cd565b612973565b60405161018196959493929190613955565b6103146103cd3660046136a2565b613049565b6101ff60005481565b600082815260046020908152604080832060060190915281208054606092839283928391839188908110610411576104116139c9565b90600052602060002090600902016040518061012001604052908160008201805461043b906139df565b80601f0160208091040260200160405190810160405280929190818152602001828054610467906139df565b80156104b45780601f10610489576101008083540402835291602001916104b4565b820191906000526020600020905b81548152906001019060200180831161049757829003601f168201915b505050505081526020016001820180546104cd906139df565b80601f01602080910402602001604051908101604052809291908181526020018280546104f9906139df565b80156105465780601f1061051b57610100808354040283529160200191610546565b820191906000526020600020905b81548152906001019060200180831161052957829003601f168201915b5050505050815260200160028201805461055f906139df565b80601f016020809104026020016040519081016040528092919081815260200182805461058b906139df565b80156105d85780601f106105ad576101008083540402835291602001916105d8565b820191906000526020600020905b8154815290600101906020018083116105bb57829003601f168201915b505050918352505060038201546001600160a01b03166020820152600482018054604090920191610608906139df565b80601f0160208091040260200160405190810160405280929190818152602001828054610634906139df565b80156106815780601f1061065657610100808354040283529160200191610681565b820191906000526020600020905b81548152906001019060200180831161066457829003601f168201915b50505050508152602001600582018054806020026020016040519081016040528092919081815260200182805480156106e357602002820191906000526020600020905b81546001600160a01b031681526001909101906020018083116106c5575b5050505050815260200160068201805480602002602001604051908101604052809291908181526020016000905b828210156107bd578382906000526020600020018054610730906139df565b80601f016020809104026020016040519081016040528092919081815260200182805461075c906139df565b80156107a95780601f1061077e576101008083540402835291602001916107a9565b820191906000526020600020905b81548152906001019060200180831161078c57829003601f168201915b505050505081526020019060010190610711565b50505050815260200160078201805480602002602001604051908101604052809291908181526020016000905b82821015610896578382906000526020600020018054610809906139df565b80601f0160208091040260200160405190810160405280929190818152602001828054610835906139df565b80156108825780601f1061085757610100808354040283529160200191610882565b820191906000526020600020905b81548152906001019060200180831161086557829003601f168201915b5050505050815260200190600101906107ea565b505050908252506008919091015460ff16151560209182015281519082015160408301516060840151608090940151929c919b50995091975095509350505050565b600082815260046020908152604080832060060190915281208054606092919084908110610908576109086139c9565b906000526020600020906009020160405180610120016040529081600082018054610932906139df565b80601f016020809104026020016040519081016040528092919081815260200182805461095e906139df565b80156109ab5780601f10610980576101008083540402835291602001916109ab565b820191906000526020600020905b81548152906001019060200180831161098e57829003601f168201915b505050505081526020016001820180546109c4906139df565b80601f01602080910402602001604051908101604052809291908181526020018280546109f0906139df565b8015610a3d5780601f10610a1257610100808354040283529160200191610a3d565b820191906000526020600020905b815481529060010190602001808311610a2057829003601f168201915b50505050508152602001600282018054610a56906139df565b80601f0160208091040260200160405190810160405280929190818152602001828054610a82906139df565b8015610acf5780601f10610aa457610100808354040283529160200191610acf565b820191906000526020600020905b815481529060010190602001808311610ab257829003601f168201915b505050918352505060038201546001600160a01b03166020820152600482018054604090920191610aff906139df565b80601f0160208091040260200160405190810160405280929190818152602001828054610b2b906139df565b8015610b785780601f10610b4d57610100808354040283529160200191610b78565b820191906000526020600020905b815481529060010190602001808311610b5b57829003601f168201915b5050505050815260200160058201805480602002602001604051908101604052809291908181526020018280548015610bda57602002820191906000526020600020905b81546001600160a01b03168152600190910190602001808311610bbc575b5050505050815260200160068201805480602002602001604051908101604052809291908181526020016000905b82821015610cb4578382906000526020600020018054610c27906139df565b80601f0160208091040260200160405190810160405280929190818152602001828054610c53906139df565b8015610ca05780601f10610c7557610100808354040283529160200191610ca0565b820191906000526020600020905b815481529060010190602001808311610c8357829003601f168201915b505050505081526020019060010190610c08565b50505050815260200160078201805480602002602001604051908101604052809291908181526020016000905b82821015610d8d578382906000526020600020018054610d00906139df565b80601f0160208091040260200160405190810160405280929190818152602001828054610d2c906139df565b8015610d795780601f10610d4e57610100808354040283529160200191610d79565b820191906000526020600020905b815481529060010190602001808311610d5c57829003601f168201915b505050505081526020019060010190610ce1565b505050908252506008919091015460ff161515602090910152519150505b92915050565b336000818152600160205260409020546001600160a01b031614610df05760405162461bcd60e51b8152600401610de790613a19565b60405180910390fd5b60008681526004602090815260408083206006018252822080546001810182558184529190922060099091020180610e288882613a95565b5060018101610e378782613a95565b5060028101610e468682613a95565b506003810180546001600160a01b0319166001600160a01b03861617905560048101610e728482613a95565b50600581018054600180820183556000928352602080842090920180546001600160a01b0319166001600160a01b038916179055600684018054918201815583529181902060408051808201909152600881526721b932b0ba34b7b760c11b9281019290925290910190610ee69082613a95565b506007810180546001810182556000918252602090912001610f088482613a95565b5060088101805460ff19169055604051600181527fe80cf56d8cce6de34cfb09ea96c686e6cf2fb7460285c4edd0515c978e45967a9060200160405180910390a15050505050505050565b6001602081905260009182526040909120805491810180546001600160a01b0390931692610f80906139df565b80601f0160208091040260200160405190810160405280929190818152602001828054610fac906139df565b8015610ff95780601f10610fce57610100808354040283529160200191610ff9565b820191906000526020600020905b815481529060010190602001808311610fdc57829003601f168201915b50505050509080600201805461100e906139df565b80601f016020809104026020016040519081016040528092919081815260200182805461103a906139df565b80156110875780601f1061105c57610100808354040283529160200191611087565b820191906000526020600020905b81548152906001019060200180831161106a57829003601f168201915b5050505050908060030154908060040180546110a2906139df565b80601f01602080910402602001604051908101604052809291908181526020018280546110ce906139df565b801561111b5780601f106110f05761010080835404028352916020019161111b565b820191906000526020600020905b8154815290600101906020018083116110fe57829003601f168201915b5050505050905085565b336000818152600160205260409020546001600160a01b03161461115b5760405162461bcd60e51b8152600401610de790613a19565b60008281526004602090815260408220600301805460018101825581845291832090910180546001600160a01b0319166001600160a01b03851617905583825254905b8181101561123e57600084815260046020526040902060030180546001600160a01b0385169190839081106111d5576111d56139c9565b6000918252602090912001546001600160a01b03160361122c576000848152600460205260409020600301805482908110611212576112126139c9565b600091825260209091200180546001600160a01b03191690555b8061123681613b6b565b91505061119e565b50604051600181527f8b3a4344cc102bd15a87fb521d84d498a36acd30f0999ee28a997c513a7e9bce9060200160405180910390a1505050565b336000818152600160205260409020546001600160a01b0316146112ae5760405162461bcd60e51b8152600401610de790613a19565b600380549060006112be83613b6b565b90915550506003546000818152600460205260409020541461141b57604051600081527fc981f5a43b62ee127d75ce676d60a264bdd009cdcde51f351a4b2bcd7a92acc79060200160405180910390a1600354600081815260046020526040902090815560010161132f8682613a95565b50600354600090815260046020526040902060020161134e8582613a95565b506003805460009081526004602081815260408084208501805460018101825590855291842090910180546001600160a01b03808a166001600160a01b031992831617909255855485528285209093018054918816919093161790915591548152206005016113bd8282613a95565b5060038054600090815260046020908152604091829020600701805460ff191690559154815160018152928301527f6b260f9ec3040a10568f2b1393f320c788cf9f4da52068fb89a7e3f6ec0321d9910160405180910390a1611450565b604051600181527fc981f5a43b62ee127d75ce676d60a264bdd009cdcde51f351a4b2bcd7a92acc79060200160405180910390a15b5050505050565b336000818152600160205260409020546001600160a01b03161461148d5760405162461bcd60e51b8152600401610de790613a19565b60008181526004602081815260408084208481558151808401909252848252938590529190526001909101906114c39082613a95565b5060408051602080820183526000808352848152600490915291909120600201906114ee9082613a95565b50600081815260046020818152604080842080840180546001600160a01b03191690558151808401909252848252938590529190526005909101906115339082613a95565b50600081815260046020526040812060078101805460ff1916600117905560030154905b818110156115ad576000838152600460205260409020600301805482908110611582576115826139c9565b600091825260209091200180546001600160a01b0319169055806115a581613b6b565b915050611557565b5060008281526004602090815260408083206006019091528120805490915b81811015611450578281815481106115e6576115e66139c9565b60009182526020822060099091020190611600828261331e565b61160e60018301600061331e565b61161c60028301600061331e565b6003820180546001600160a01b031916905561163c60048301600061331e565b61164a60058301600061335b565b611658600683016000613379565b611666600783016000613379565b50600801805460ff191690558061167c81613b6b565b9150506115cc565b336000818152600160205260409020546001600160a01b0316146116ba5760405162461bcd60e51b8152600401610de790613a19565b60008281526004602090815260408083206003018054600180820183559185529383902090930180546001600160a01b0319166001600160a01b038616179055519182527f8b3a4344cc102bd15a87fb521d84d498a36acd30f0999ee28a997c513a7e9bce910160405180910390a15050565b60008181526004602052604081205482900361174b57506001919050565b919050565b600260205260009081526040902080546001820180546001600160a01b039092169291610f80906139df565b336000818152600160205260409020546001600160a01b0316146117b25760405162461bcd60e51b8152600401610de790613a19565b600085815260046020908152604080832060060190915281208054869081106117dd576117dd6139c9565b6000918252602080832060056009909302019182018054600181810183559185528285200180546001600160a01b038a166001600160a01b03199091161790556006830180549182018155845292209092500161183a8482613a95565b50600781018054600181018255600091825260209091200161185c8382613a95565b50604051600181527fe80cf56d8cce6de34cfb09ea96c686e6cf2fb7460285c4edd0515c978e45967a9060200160405180910390a1505050505050565b6001600160a01b03808216600081815260016020526040812054909216036118c357506001919050565b506000919050565b336000818152600160205260409020546001600160a01b0316146119015760405162461bcd60e51b8152600401610de790613a19565b6000828152600460209081526040808320600601909152812080548390811061192c5761192c6139c9565b90600052602060002090600902019050604051806080016040528060428152602001613b986042913981906119619082613a95565b5060408051602081019091526000815260018201906119809082613a95565b50604080516020810190915260008152600282019061199f9082613a95565b506003810180546001600160a01b031916905560408051602081019091526000815260048201906119d09082613a95565b50600581015460005b81811015611ab05760008360050182815481106119f8576119f86139c9565b9060005260206000200160006101000a8154816001600160a01b0302191690836001600160a01b0316021790555060405180602001604052806000815250836006018281548110611a4b57611a4b6139c9565b906000526020600020019081611a619190613a95565b5060405180602001604052806000815250836007018281548110611a8757611a876139c9565b906000526020600020019081611a9d9190613a95565b5080611aa881613b6b565b9150506119d9565b5060088201805460ff191660019081179091556040519081527fe80cf56d8cce6de34cfb09ea96c686e6cf2fb7460285c4edd0515c978e45967a9060200160405180910390a150505050565b60008181526004602090815260408083206003018054825181850281018501909352808352606094938493929190830182828015611b6357602002820191906000526020600020905b81546001600160a01b03168152600190910190602001808311611b45575b5050505050905060008151905060008167ffffffffffffffff811115611b8b57611b8b6134b7565b604051908082528060200260200182016040528015611bb4578160200160208202803683370190505b50905060005b82811015611c1857838181518110611bd457611bd46139c9565b6020026020010151828281518110611bee57611bee6139c9565b6001600160a01b039092166020928302919091019091015280611c1081613b6b565b915050611bba565b509590945092505050565b60046020526000908152604090208054600182018054919291611c45906139df565b80601f0160208091040260200160405190810160405280929190818152602001828054611c71906139df565b8015611cbe5780601f10611c9357610100808354040283529160200191611cbe565b820191906000526020600020905b815481529060010190602001808311611ca157829003601f168201915b505050505090806002018054611cd3906139df565b80601f0160208091040260200160405190810160405280929190818152602001828054611cff906139df565b8015611d4c5780601f10611d2157610100808354040283529160200191611d4c565b820191906000526020600020905b815481529060010190602001808311611d2f57829003601f168201915b505050600484015460058501805494956001600160a01b03909216949193509150611d76906139df565b80601f0160208091040260200160405190810160405280929190818152602001828054611da2906139df565b8015611def5780601f10611dc457610100808354040283529160200191611def565b820191906000526020600020905b815481529060010190602001808311611dd257829003601f168201915b5050506007909301549192505060ff1686565b600082815260046020908152604080832060030180548251818502810185019093528083528493830182828015611e6257602002820191906000526020600020905b81546001600160a01b03168152600190910190602001808311611e44575b505083519394506000925050505b81811015611ec857846001600160a01b0316838281518110611e9457611e946139c9565b60200260200101516001600160a01b031603611eb65760019350505050610dab565b80611ec081613b6b565b915050611e70565b50505092915050565b6000818152600460205260409020600101805460609190611ef1906139df565b80601f0160208091040260200160405190810160405280929190818152602001828054611f1d906139df565b8015611f6a5780601f10611f3f57610100808354040283529160200191611f6a565b820191906000526020600020905b815481529060010190602001808311611f4d57829003601f168201915b50505050509050919050565b60008281526004602090815260408083206006019091528120805482919084908110611fa457611fa46139c9565b906000526020600020906009020160405180610120016040529081600082018054611fce906139df565b80601f0160208091040260200160405190810160405280929190818152602001828054611ffa906139df565b80156120475780601f1061201c57610100808354040283529160200191612047565b820191906000526020600020905b81548152906001019060200180831161202a57829003601f168201915b50505050508152602001600182018054612060906139df565b80601f016020809104026020016040519081016040528092919081815260200182805461208c906139df565b80156120d95780601f106120ae576101008083540402835291602001916120d9565b820191906000526020600020905b8154815290600101906020018083116120bc57829003601f168201915b505050505081526020016002820180546120f2906139df565b80601f016020809104026020016040519081016040528092919081815260200182805461211e906139df565b801561216b5780601f106121405761010080835404028352916020019161216b565b820191906000526020600020905b81548152906001019060200180831161214e57829003601f168201915b505050918352505060038201546001600160a01b0316602082015260048201805460409092019161219b906139df565b80601f01602080910402602001604051908101604052809291908181526020018280546121c7906139df565b80156122145780601f106121e957610100808354040283529160200191612214565b820191906000526020600020905b8154815290600101906020018083116121f757829003601f168201915b505050505081526020016005820180548060200260200160405190810160405280929190818152602001828054801561227657602002820191906000526020600020905b81546001600160a01b03168152600190910190602001808311612258575b5050505050815260200160068201805480602002602001604051908101604052809291908181526020016000905b828210156123505783829060005260206000200180546122c3906139df565b80601f01602080910402602001604051908101604052809291908181526020018280546122ef906139df565b801561233c5780601f106123115761010080835404028352916020019161233c565b820191906000526020600020905b81548152906001019060200180831161231f57829003601f168201915b5050505050815260200190600101906122a4565b50505050815260200160078201805480602002602001604051908101604052809291908181526020016000905b8282101561242957838290600052602060002001805461239c906139df565b80601f01602080910402602001604051908101604052809291908181526020018280546123c8906139df565b80156124155780601f106123ea57610100808354040283529160200191612415565b820191906000526020600020905b8154815290600101906020018083116123f857829003601f168201915b50505050508152602001906001019061237d565b505050908252506008919091015460ff16151560209091015260a0810151805191925090819061245b90600190613b84565b8151811061246b5761246b6139c9565b60200260200101519250505092915050565b60008281526004602090815260408083206006019091528120805460609283928392829190879081106124b2576124b26139c9565b9060005260206000209060090201604051806101200160405290816000820180546124dc906139df565b80601f0160208091040260200160405190810160405280929190818152602001828054612508906139df565b80156125555780601f1061252a57610100808354040283529160200191612555565b820191906000526020600020905b81548152906001019060200180831161253857829003601f168201915b5050505050815260200160018201805461256e906139df565b80601f016020809104026020016040519081016040528092919081815260200182805461259a906139df565b80156125e75780601f106125bc576101008083540402835291602001916125e7565b820191906000526020600020905b8154815290600101906020018083116125ca57829003601f168201915b50505050508152602001600282018054612600906139df565b80601f016020809104026020016040519081016040528092919081815260200182805461262c906139df565b80156126795780601f1061264e57610100808354040283529160200191612679565b820191906000526020600020905b81548152906001019060200180831161265c57829003601f168201915b505050918352505060038201546001600160a01b031660208201526004820180546040909201916126a9906139df565b80601f01602080910402602001604051908101604052809291908181526020018280546126d5906139df565b80156127225780601f106126f757610100808354040283529160200191612722565b820191906000526020600020905b81548152906001019060200180831161270557829003601f168201915b505050505081526020016005820180548060200260200160405190810160405280929190818152602001828054801561278457602002820191906000526020600020905b81546001600160a01b03168152600190910190602001808311612766575b5050505050815260200160068201805480602002602001604051908101604052809291908181526020016000905b8282101561285e5783829060005260206000200180546127d1906139df565b80601f01602080910402602001604051908101604052809291908181526020018280546127fd906139df565b801561284a5780601f1061281f5761010080835404028352916020019161284a565b820191906000526020600020905b81548152906001019060200180831161282d57829003601f168201915b5050505050815260200190600101906127b2565b50505050815260200160078201805480602002602001604051908101604052809291908181526020016000905b828210156129375783829060005260206000200180546128aa906139df565b80601f01602080910402602001604051908101604052809291908181526020018280546128d6906139df565b80156129235780601f106128f857610100808354040283529160200191612923565b820191906000526020600020905b81548152906001019060200180831161290657829003601f168201915b50505050508152602001906001019061288b565b505050908252506008919091015460ff161515602091820152815190820151608083015161010090930151919a90995091975095509350505050565b60008281526004602090815260408083206006019091528120805460609182918291829182918791899081106129ab576129ab6139c9565b9060005260206000209060090201604051806101200160405290816000820180546129d5906139df565b80601f0160208091040260200160405190810160405280929190818152602001828054612a01906139df565b8015612a4e5780601f10612a2357610100808354040283529160200191612a4e565b820191906000526020600020905b815481529060010190602001808311612a3157829003601f168201915b50505050508152602001600182018054612a67906139df565b80601f0160208091040260200160405190810160405280929190818152602001828054612a93906139df565b8015612ae05780601f10612ab557610100808354040283529160200191612ae0565b820191906000526020600020905b815481529060010190602001808311612ac357829003601f168201915b50505050508152602001600282018054612af9906139df565b80601f0160208091040260200160405190810160405280929190818152602001828054612b25906139df565b8015612b725780601f10612b4757610100808354040283529160200191612b72565b820191906000526020600020905b815481529060010190602001808311612b5557829003601f168201915b505050918352505060038201546001600160a01b03166020820152600482018054604090920191612ba2906139df565b80601f0160208091040260200160405190810160405280929190818152602001828054612bce906139df565b8015612c1b5780601f10612bf057610100808354040283529160200191612c1b565b820191906000526020600020905b815481529060010190602001808311612bfe57829003601f168201915b5050505050815260200160058201805480602002602001604051908101604052809291908181526020018280548015612c7d57602002820191906000526020600020905b81546001600160a01b03168152600190910190602001808311612c5f575b5050505050815260200160068201805480602002602001604051908101604052809291908181526020016000905b82821015612d57578382906000526020600020018054612cca906139df565b80601f0160208091040260200160405190810160405280929190818152602001828054612cf6906139df565b8015612d435780601f10612d1857610100808354040283529160200191612d43565b820191906000526020600020905b815481529060010190602001808311612d2657829003601f168201915b505050505081526020019060010190612cab565b50505050815260200160078201805480602002602001604051908101604052809291908181526020016000905b82821015612e30578382906000526020600020018054612da3906139df565b80601f0160208091040260200160405190810160405280929190818152602001828054612dcf906139df565b8015612e1c5780601f10612df157610100808354040283529160200191612e1c565b820191906000526020600020905b815481529060010190602001808311612dff57829003601f168201915b505050505081526020019060010190612d84565b505050908252506008919091015460ff16151560209091015260a081015180519192509060008167ffffffffffffffff811115612e6f57612e6f6134b7565b604051908082528060200260200182016040528015612e98578160200160208202803683370190505b5060e085015190915060008367ffffffffffffffff811115612ebc57612ebc6134b7565b604051908082528060200260200182016040528015612eef57816020015b6060815260200190600190039081612eda5790505b5060c087015190915060008567ffffffffffffffff811115612f1357612f136134b7565b604051908082528060200260200182016040528015612f4657816020015b6060815260200190600190039081612f315790505b50905060005b8681101561302157878181518110612f6657612f666139c9565b6020026020010151868281518110612f8057612f806139c9565b60200260200101906001600160a01b031690816001600160a01b031681525050848181518110612fb257612fb26139c9565b6020026020010151848281518110612fcc57612fcc6139c9565b6020026020010181905250828181518110612fe957612fe96139c9565b6020026020010151828281518110613003576130036139c9565b6020026020010181905250808061301990613b6b565b915050612f4c565b505060208701519651949c50959a5092985092965091945091925050505b9295509295509295565b600082815260046020908152604080832060038101805483518186028101860190945280845260609485948794869486949193859392908301828280156130b957602002820191906000526020600020905b81546001600160a01b0316815260019091019060200180831161309b575b505083519394506000925050505b818110156133105760008c815260046020526040902060030180546001600160a01b038d169190839081106130fe576130fe6139c9565b6000918252602090912001546001600160a01b0316036132fe57835460048501546007860154600187018054909260028901926001600160a01b039091169160058a019160ff16908590613151906139df565b80601f016020809104026020016040519081016040528092919081815260200182805461317d906139df565b80156131ca5780601f1061319f576101008083540402835291602001916131ca565b820191906000526020600020905b8154815290600101906020018083116131ad57829003601f168201915b505050505094508380546131dd906139df565b80601f0160208091040260200160405190810160405280929190818152602001828054613209906139df565b80156132565780601f1061322b57610100808354040283529160200191613256565b820191906000526020600020905b81548152906001019060200180831161323957829003601f168201915b50505050509350818054613269906139df565b80601f0160208091040260200160405190810160405280929190818152602001828054613295906139df565b80156132e25780601f106132b7576101008083540402835291602001916132e2565b820191906000526020600020905b8154815290600101906020018083116132c557829003601f168201915b505050505091509950995099509950995099505050505061303f565b8061330881613b6b565b9150506130c7565b505050509295509295509295565b50805461332a906139df565b6000825580601f1061333a575050565b601f0160209004906000526020600020908101906133589190613397565b50565b50805460008255906000526020600020908101906133589190613397565b508054600082559060005260206000209081019061335891906133b0565b5b808211156133ac5760008155600101613398565b5090565b808211156133ac5760006133c4828261331e565b506001016133b0565b600080604083850312156133e057600080fd5b50508035926020909101359150565b6000815180845260005b81811015613415576020818501810151868301820152016133f9565b506000602082860101526020601f19601f83011685010191505092915050565b60a08152600061344860a08301886133ef565b828103602084015261345a81886133ef565b9050828103604084015261346e81876133ef565b6001600160a01b03861660608501528381036080850152905061349181856133ef565b98975050505050505050565b6020815260006134b060208301846133ef565b9392505050565b634e487b7160e01b600052604160045260246000fd5b600082601f8301126134de57600080fd5b813567ffffffffffffffff808211156134f9576134f96134b7565b604051601f8301601f19908116603f01168101908282118183101715613521576135216134b7565b8160405283815286602085880101111561353a57600080fd5b836020870160208301376000602085830101528094505050505092915050565b80356001600160a01b038116811461174b57600080fd5b60008060008060008060c0878903121561358a57600080fd5b86359550602087013567ffffffffffffffff808211156135a957600080fd5b6135b58a838b016134cd565b965060408901359150808211156135cb57600080fd5b6135d78a838b016134cd565b955060608901359150808211156135ed57600080fd5b6135f98a838b016134cd565b945061360760808a0161355a565b935060a089013591508082111561361d57600080fd5b5061362a89828a016134cd565b9150509295509295509295565b60006020828403121561364957600080fd5b6134b08261355a565b6001600160a01b038616815260a060208201819052600090613676908301876133ef565b828103604084015261368881876133ef565b9050846060840152828103608084015261349181856133ef565b600080604083850312156136b557600080fd5b823591506136c56020840161355a565b90509250929050565b6000602082840312156136e057600080fd5b5035919050565b600080600080600060a086880312156136ff57600080fd5b853567ffffffffffffffff8082111561371757600080fd5b61372389838a016134cd565b9650602088013591508082111561373957600080fd5b61374589838a016134cd565b95506137536040890161355a565b94506137616060890161355a565b9350608088013591508082111561377757600080fd5b50613784888289016134cd565b9150509295509295909350565b600080600080600060a086880312156137a957600080fd5b85359450602086013593506137c06040870161355a565b9250606086013567ffffffffffffffff808211156137dd57600080fd5b61376189838a016134cd565b600081518084526020808501945080840160005b838110156138225781516001600160a01b0316875295820195908201906001016137fd565b509495945050505050565b60408152600061384060408301856137e9565b90508260208301529392505050565b86815260c06020820152600061386860c08301886133ef565b828103604084015261387a81886133ef565b6001600160a01b03871660608501528381036080850152905061389d81866133ef565b91505082151560a0830152979650505050505050565b6080815260006138c660808301876133ef565b82810360208401526138d881876133ef565b905082810360408401526138ec81866133ef565b915050821515606083015295945050505050565b600081518084526020808501808196508360051b8101915082860160005b858110156139485782840389526139368483516133ef565b9885019893509084019060010161391e565b5091979650505050505050565b86815260c06020820152600061396e60c08301886133ef565b828103604084015261398081886133ef565b9050828103606084015261399481876137e9565b905082810360808401526139a88186613900565b905082810360a08401526139bc8185613900565b9998505050505050505050565b634e487b7160e01b600052603260045260246000fd5b600181811c908216806139f357607f821691505b602082108103613a1357634e487b7160e01b600052602260045260246000fd5b50919050565b602080825260139082015272165bdd48185c99481b9bdd08185b1b1bddd959606a1b604082015260600190565b601f821115613a9057600081815260208120601f850160051c81016020861015613a6d5750805b601f850160051c820191505b81811015613a8c57828155600101613a79565b5050505b505050565b815167ffffffffffffffff811115613aaf57613aaf6134b7565b613ac381613abd84546139df565b84613a46565b602080601f831160018114613af85760008415613ae05750858301515b600019600386901b1c1916600185901b178555613a8c565b600085815260208120601f198616915b82811015613b2757888601518255948401946001909101908401613b08565b5085821015613b455787850151600019600388901b60f8161c191681555b5050505050600190811b01905550565b634e487b7160e01b600052601160045260246000fd5b600060018201613b7d57613b7d613b55565b5060010190565b81810381811115610dab57610dab613b5556fe307830303030303030303030303030303030303030303030303030303030303030303030303030303030303030303030303030303030303030303030303030303030a26469706673582212207a8304ab5e2adc8637bd0ba7c89c9de470d5bb1bee73723744f42cec68c5db4a64736f6c63430008130033",
  "immutableReferences": {},
  "source": "// SPDX-License-Identifier: MIT\npragma solidity ^0.8.19;\n\nimport \"./Evidence.sol\";\nimport \"./Issued.sol\";\n\ncontract Case is Evidence, Issued {\n    \n    //Case ID counter\n    uint public caseId;\n\n    //Case info struct\n    struct CaseInfo {\n        uint caseNum;\n        string caseName;\n        string caseDesc;\n        address[] caseInvestigators;\n        address creator;\n        string creationTime;\n        mapping (uint => Evidence.EvidenceInfo[]) evidenceList;\n        bool closed; //default false\n    }\n\n    //(Not used) Modifier to check if an evidence was deleted \n/*  modifier evidenceNotDeleted(uint _caseId, uint _evidenceId) {\n        bool isDeleted = caseList[_caseId].evidenceList[_caseId][_evidenceId].deleted;\n        require (isDeleted == false, \"There is no such evidence\");\n        _;\n    } */\n\n    //Case List\n    mapping (uint => CaseInfo) public caseList;\n\n    //Events\n    event CaseExists(bool result);\n    event IsSuccessful(bool result, uint id);\n    event IsSuccessful_Evidence(bool result); \n    event IsSuccessful_Investigator(bool result); \n\n    //Function to open a new case, with the \"onlyAdmin\" modifier from \"Issued\" smart contract, which means that only an admin can interact with it\n    function openNewCase (string memory _caseName, string memory _caseDesc, address _caseInvestigator, address _caseCreator, string memory _creationTime) public onlyAdmin {\n        caseId++;   //Case Id starts with 1\n        \n        if (caseList[caseId].caseNum != caseId) {   //Case Id existence check\n            emit CaseExists(false);\n            caseList[caseId].caseNum = caseId;\n            caseList[caseId].caseName = _caseName;\n            caseList[caseId].caseDesc = _caseDesc;\n            caseList[caseId].caseInvestigators.push(_caseInvestigator); \n            caseList[caseId].creator = _caseCreator;\n            caseList[caseId].creationTime = _creationTime;\n            caseList[caseId].closed = false;\n\n            emit IsSuccessful(true, caseId);\n        } else {\n            emit CaseExists(true);\n        }\n    }\n\n    //Function to check if a case exists based on its ID\n    function caseExists (uint _caseId) public view returns (bool) {\n        if (caseList[_caseId].caseNum == _caseId) {\n            return true;\n        }\n    }\n\n    //Function which returns the name of a case based on its ID\n    function getCaseName (uint _caseId) public view returns (string memory) {\n        return caseList[_caseId].caseName;\n    }\n\n    //Function which returns the active cases of a certain investigator\n    function activeCases (uint _caseId, address _walletAddress) public view returns (uint, string memory, string memory, address, string memory, bool) {\n        CaseInfo storage thisCase = caseList[_caseId];\n        \n        address[] memory caseInvestigatorsArray = caseList[_caseId].caseInvestigators;\n        uint len = caseInvestigatorsArray.length;\n\n        for (uint i = 0 ; i < len; i++){\n            if (caseList[_caseId].caseInvestigators[i] == _walletAddress) {                \n                return (thisCase.caseNum, thisCase.caseName, thisCase.caseDesc, thisCase.creator, thisCase.creationTime, thisCase.closed);\n            }\n        }        \n    }\n\n    //Function to close a case based on its ID and delete its evidence, with the \"onlyAdmin\" modifier from \"Issued\" smart contract, which means that only an admin can interact with it\n    function closeCase (uint _caseId) public onlyAdmin {\n        caseList[_caseId].caseNum = 0;                                                      //In blockchain is impossible to delete something permanently, like in a traditional \n        caseList[_caseId].caseName = \"\";                                                    //database. Instead, delete means to assign the default value in a variable. For example,\n        caseList[_caseId].caseDesc = \"\";                                                    //the default value of a string variable is \"\" (empty) and of a uint is 0\n        caseList[_caseId].creator = 0x0000000000000000000000000000000000000000;\n        caseList[_caseId].creationTime = \"\";\n        caseList[_caseId].closed = true;\n\n        uint caseLen = caseList[_caseId].caseInvestigators.length;\n        for (uint i = 0 ; i < caseLen; i++){\n            delete caseList[_caseId].caseInvestigators[i];\n        }\n\n        Evidence.EvidenceInfo[] storage thisEvidence = caseList[_caseId].evidenceList[_caseId];\n\n        uint evidLen = thisEvidence.length;\n        for (uint j = 0 ; j < evidLen; j++){\n            delete thisEvidence[j];             //Delete doesn 't actually delete the element but it assigns the default value to it (see comment above)\n        }\n    }\n\n    //Function to assign an investigator to a case, with the \"onlyAdmin\" modifier from \"Issued\" smart contract, which means that only an admin can interact with it\n    function addCaseInvestigator (uint _caseId, address _investigator) public onlyAdmin {       \n        caseList[_caseId].caseInvestigators.push(_investigator);\n        emit IsSuccessful_Investigator(true);\n    }\n\n    //Function to remove an investigator from a case, with the \"onlyAdmin\" modifier from \"Issued\" smart contract, which means that only an admin can interact with it\n    function removeCaseInvestigator (uint _caseId, address _investigator) public onlyAdmin {       \n        caseList[_caseId].caseInvestigators.push(_investigator);\n\n        uint caseLen = caseList[_caseId].caseInvestigators.length;\n        for (uint i = 0 ; i < caseLen; i++){\n            if (caseList[_caseId].caseInvestigators[i] == _investigator) {\n                delete caseList[_caseId].caseInvestigators[i];\n            }\n        }\n        emit IsSuccessful_Investigator(true);\n    }\n\n    //Function which returns the investigators of a particular case and the total number of them \n    function getCaseInvestigators (uint _caseId) public view returns (address[] memory, uint) {\n        address[] memory CaseInvestigators = caseList[_caseId].caseInvestigators;\n        uint len = CaseInvestigators.length;\n        address[] memory investigatorResult = new address[](len);\n\n        for (uint i = 0 ; i < len; i++){\n            investigatorResult[i] = CaseInvestigators[i];\n        }\n        return (investigatorResult, len);\n    }\n\n    //Function to check if an investigator is already assigned to a case\n    function invExistsInCase (uint _caseId, address _walletAddress) public view returns (bool) {\n        address[] memory CaseInvestigators = caseList[_caseId].caseInvestigators;\n        uint len = CaseInvestigators.length;\n\n        for (uint i = 0 ; i < len; i++){\n            if (CaseInvestigators[i] == _walletAddress) {\n                return true;\n            }            \n        }\n    }\n\n    //Function to add evidence to a case, with the \"onlyAdmin\" modifier from \"Issued\" smart contract, which means that only an admin can interact with it\n    function addCaseEvidence (uint _caseId, bytes memory _evidenceHash, string memory _evidenceName, string memory _evidenceDesc, address _creator, string memory _dateCreated) public onlyAdmin {   \n        Evidence.EvidenceInfo[] storage thisEvidence = caseList[_caseId].evidenceList[_caseId];\n        Evidence.EvidenceInfo storage singleEvidence = thisEvidence.push();\n\n        singleEvidence.evidenceHash = _evidenceHash;\n        singleEvidence.evidenceName = _evidenceName;\n        singleEvidence.evidenceDesc = _evidenceDesc;\n        singleEvidence.creator = _creator;\n        singleEvidence.dateCreated = _dateCreated;\n        singleEvidence.transferChain.push(_creator);\n        singleEvidence.transferDesc.push(\"Creation\");\n        singleEvidence.transferTime.push(_dateCreated);\n        singleEvidence.deleted = false;    \n\n        emit IsSuccessful_Evidence(true);\n    }\n    \n    //Function which returns evidence 's info\n    function getCaseEvidenceCollapsed(uint _caseId, uint _evidenceId) public view returns (bytes memory, string memory, string memory, bool) {\n        Evidence.EvidenceInfo memory thisEvidence = caseList[_caseId].evidenceList[_caseId][_evidenceId];\n        return (thisEvidence.evidenceHash, thisEvidence.evidenceName, thisEvidence.dateCreated, thisEvidence.deleted);\n    }\n\n    //Function which returns evidence 's info\n    function getCaseEvidenceExpanded(uint _caseId, uint _evidenceId) public view returns (bytes memory, string memory, string memory, address, string memory) {\n        Evidence.EvidenceInfo memory thisEvidence = caseList[_caseId].evidenceList[_caseId][_evidenceId];\n        return (thisEvidence.evidenceHash, thisEvidence.evidenceName, thisEvidence.evidenceDesc, thisEvidence.creator, thisEvidence.dateCreated);\n    }\n\n    //Function which returns evidence 's hash\n    function getEvidenceHash(uint _caseId, uint _evidenceId) public view returns (bytes memory) {        \n        Evidence.EvidenceInfo memory thisEvidence = caseList[_caseId].evidenceList[_caseId][_evidenceId];\n        return (thisEvidence.evidenceHash);\n    }\n\n    //Function which returns the total number of the evidences in a case \n    function evidenceCount (uint _caseId) public view returns (uint){\n        Evidence.EvidenceInfo[] storage thisEvidence = caseList[_caseId].evidenceList[_caseId];\n        return thisEvidence.length;\n    }\n\n    //Function which returns the current owner of an evidence\n    function getCurrentOwner (uint _caseId, uint _evidenceId) public view returns (address) {\n        Evidence.EvidenceInfo memory thisEvidence = caseList[_caseId].evidenceList[_caseId][_evidenceId];\n        address[] memory chain = thisEvidence.transferChain;\n        return chain[chain.length - 1];\n    }\n\n    //Function to transfer an evidence from one investigator to another, with the \"onlyAdmin\" modifier from \"Issued\" smart contract, which means that only an admin can interact with it\n    function transferEvidence (uint _caseId, uint _evidenceId, address _transferTo, string memory _transferDesc, string memory _transferTime) public onlyAdmin {\n        Evidence.EvidenceInfo storage thisEvidence = caseList[_caseId].evidenceList[_caseId][_evidenceId];\n\n        thisEvidence.transferChain.push(_transferTo);\n        thisEvidence.transferDesc.push(_transferDesc);\n        thisEvidence.transferTime.push(_transferTime);\n\n        emit IsSuccessful_Evidence(true);\n    }\n\n    //Function which returns the chain of custody of an evidence \n    function viewChainOfCustody (uint _caseId, uint _evidenceId) public view returns (uint, string memory, bytes memory, address[] memory, string[] memory, string[] memory) {\n        Evidence.EvidenceInfo memory thisEvidence = caseList[_caseId].evidenceList[_caseId][_evidenceId];\n\n        address[] memory transfChain = thisEvidence.transferChain;\n        uint transfArrayLen = transfChain.length;       //transfArrayLen is the same as the length of timeChain and descChain\n        address[] memory transfResult = new address[](transfArrayLen);\n\n        string[] memory timeChain = thisEvidence.transferTime;\n        string[] memory timeResult = new string[](transfArrayLen);\n\n        string[] memory descChain = thisEvidence.transferDesc;\n        string[] memory descResult = new string[](transfArrayLen);\n\n        for (uint i = 0 ; i < transfArrayLen; i++){ \n            transfResult[i] = transfChain[i];\n            timeResult[i] = timeChain[i];\n            descResult[i] = descChain[i];\n        } \n        return (transfArrayLen, thisEvidence.evidenceName, thisEvidence.evidenceHash, transfChain, timeChain, descChain);\n    }\n\n    //Function to delete a certain evidence, with the \"onlyAdmin\" modifier from \"Issued\" smart contract, which means that only an admin can interact with it\n    function deleteEvidence (uint _caseId, uint _evidenceId) public onlyAdmin {\n        Evidence.EvidenceInfo storage thisEvidence = caseList[_caseId].evidenceList[_caseId][_evidenceId];\n\n        thisEvidence.evidenceHash = \"0x0000000000000000000000000000000000000000000000000000000000000000\";   \n        thisEvidence.evidenceName = \"\";                                                                     \n        thisEvidence.evidenceDesc = \"\";                                                                     \n        thisEvidence.creator = 0x0000000000000000000000000000000000000000;        \n        thisEvidence.dateCreated = \"\";\n\n        uint transfArrayLen = thisEvidence.transferChain.length;\n        for (uint i = 0 ; i < transfArrayLen; i++){\n            thisEvidence.transferChain[i] = 0x0000000000000000000000000000000000000000;\n            thisEvidence.transferDesc[i] = \"\";\n            thisEvidence.transferTime[i] = \"\";\n        }\n        thisEvidence.deleted = true;\n\n        emit IsSuccessful_Evidence(true);\n    }\n}   ",
  "sourcePath": "/Volumes/Tank/DIPLOMA/THEMIS APP/project/contracts/Case.sol",
  "compiler": {
    "name": "solc",
    "version": "0.8.19+commit.7dd6d404.Emscripten.clang"
  },
  "schemaVersion": "3.4.14",
  "updatedAt": "2023-08-08T14:57:31.474Z",
  "networkType": "ethereum",
  "devdoc": {
    "kind": "dev",
    "methods": {},
    "version": 1
  },
  "userdoc": {
    "kind": "user",
    "methods": {},
    "version": 1
  }
}