{
  "contractName": "Investigator",
  "abi": [
    {
      "anonymous": false,
      "inputs": [
        {
          "indexed": false,
          "internalType": "bool",
          "name": "exists",
          "type": "bool"
        }
      ],
      "name": "AddressExists",
      "type": "event"
    },
    {
      "anonymous": false,
      "inputs": [
        {
          "indexed": false,
          "internalType": "bool",
          "name": "result",
          "type": "bool"
        }
      ],
      "name": "IsSuccessful",
      "type": "event"
    },
    {
      "inputs": [
        {
          "internalType": "uint256",
          "name": "",
          "type": "uint256"
        }
      ],
      "name": "adminCountList",
      "outputs": [
        {
          "internalType": "address",
          "name": "walletAddress",
          "type": "address"
        },
        {
          "internalType": "string",
          "name": "fullName",
          "type": "string"
        },
        {
          "internalType": "string",
          "name": "email",
          "type": "string"
        },
        {
          "internalType": "uint256",
          "name": "mobile",
          "type": "uint256"
        },
        {
          "internalType": "string",
          "name": "dob",
          "type": "string"
        }
      ],
      "stateMutability": "view",
      "type": "function",
      "constant": true
    },
    {
      "inputs": [],
      "name": "adminCounter",
      "outputs": [
        {
          "internalType": "uint256",
          "name": "",
          "type": "uint256"
        }
      ],
      "stateMutability": "view",
      "type": "function",
      "constant": true
    },
    {
      "inputs": [
        {
          "internalType": "address",
          "name": "_walletAddress",
          "type": "address"
        }
      ],
      "name": "adminExists",
      "outputs": [
        {
          "internalType": "bool",
          "name": "",
          "type": "bool"
        }
      ],
      "stateMutability": "view",
      "type": "function",
      "constant": true
    },
    {
      "inputs": [
        {
          "internalType": "uint256",
          "name": "",
          "type": "uint256"
        }
      ],
      "name": "adminInvestigatorList",
      "outputs": [
        {
          "internalType": "address",
          "name": "walletAddress",
          "type": "address"
        },
        {
          "internalType": "uint256",
          "name": "invId",
          "type": "uint256"
        },
        {
          "internalType": "string",
          "name": "fullName",
          "type": "string"
        },
        {
          "internalType": "string",
          "name": "email",
          "type": "string"
        },
        {
          "internalType": "uint256",
          "name": "mobile",
          "type": "uint256"
        },
        {
          "internalType": "string",
          "name": "dob",
          "type": "string"
        },
        {
          "internalType": "address",
          "name": "issuedBy",
          "type": "address"
        }
      ],
      "stateMutability": "view",
      "type": "function",
      "constant": true
    },
    {
      "inputs": [
        {
          "internalType": "address",
          "name": "",
          "type": "address"
        }
      ],
      "name": "adminList",
      "outputs": [
        {
          "internalType": "address",
          "name": "walletAddress",
          "type": "address"
        },
        {
          "internalType": "string",
          "name": "fullName",
          "type": "string"
        },
        {
          "internalType": "string",
          "name": "email",
          "type": "string"
        },
        {
          "internalType": "uint256",
          "name": "mobile",
          "type": "uint256"
        },
        {
          "internalType": "string",
          "name": "dob",
          "type": "string"
        }
      ],
      "stateMutability": "view",
      "type": "function",
      "constant": true
    },
    {
      "inputs": [],
      "name": "investigatorCounter",
      "outputs": [
        {
          "internalType": "uint256",
          "name": "",
          "type": "uint256"
        }
      ],
      "stateMutability": "view",
      "type": "function",
      "constant": true
    },
    {
      "inputs": [
        {
          "internalType": "uint256",
          "name": "",
          "type": "uint256"
        }
      ],
      "name": "investigatorIdArray",
      "outputs": [
        {
          "internalType": "uint256",
          "name": "",
          "type": "uint256"
        }
      ],
      "stateMutability": "view",
      "type": "function",
      "constant": true
    },
    {
      "inputs": [
        {
          "internalType": "address",
          "name": "",
          "type": "address"
        }
      ],
      "name": "investigatorList",
      "outputs": [
        {
          "internalType": "address",
          "name": "walletAddress",
          "type": "address"
        },
        {
          "internalType": "uint256",
          "name": "invId",
          "type": "uint256"
        },
        {
          "internalType": "string",
          "name": "fullName",
          "type": "string"
        },
        {
          "internalType": "string",
          "name": "email",
          "type": "string"
        },
        {
          "internalType": "uint256",
          "name": "mobile",
          "type": "uint256"
        },
        {
          "internalType": "string",
          "name": "dob",
          "type": "string"
        },
        {
          "internalType": "address",
          "name": "issuedBy",
          "type": "address"
        }
      ],
      "stateMutability": "view",
      "type": "function",
      "constant": true
    },
    {
      "inputs": [
        {
          "internalType": "address",
          "name": "_walletAddress",
          "type": "address"
        },
        {
          "internalType": "uint256",
          "name": "_invId",
          "type": "uint256"
        },
        {
          "internalType": "string",
          "name": "_fullName",
          "type": "string"
        },
        {
          "internalType": "string",
          "name": "_email",
          "type": "string"
        },
        {
          "internalType": "uint256",
          "name": "_mobile",
          "type": "uint256"
        },
        {
          "internalType": "string",
          "name": "_dob",
          "type": "string"
        },
        {
          "internalType": "address",
          "name": "_issuer",
          "type": "address"
        }
      ],
      "name": "addInvestigator",
      "outputs": [],
      "stateMutability": "nonpayable",
      "type": "function"
    },
    {
      "inputs": [
        {
          "internalType": "address",
          "name": "_walletAddress",
          "type": "address"
        }
      ],
      "name": "getInvestigatorName",
      "outputs": [
        {
          "internalType": "string",
          "name": "",
          "type": "string"
        }
      ],
      "stateMutability": "view",
      "type": "function",
      "constant": true
    },
    {
      "inputs": [
        {
          "internalType": "address",
          "name": "_walletAddress",
          "type": "address"
        },
        {
          "internalType": "uint256",
          "name": "_invId",
          "type": "uint256"
        }
      ],
      "name": "removeInvestigator",
      "outputs": [],
      "stateMutability": "nonpayable",
      "type": "function"
    },
    {
      "inputs": [
        {
          "internalType": "address",
          "name": "_walletAddress",
          "type": "address"
        }
      ],
      "name": "investigatorExists",
      "outputs": [
        {
          "internalType": "bool",
          "name": "",
          "type": "bool"
        }
      ],
      "stateMutability": "view",
      "type": "function",
      "constant": true
    },
    {
      "inputs": [
        {
          "internalType": "uint256",
          "name": "_invId",
          "type": "uint256"
        }
      ],
      "name": "invIdExists",
      "outputs": [
        {
          "internalType": "bool",
          "name": "",
          "type": "bool"
        }
      ],
      "stateMutability": "view",
      "type": "function",
      "constant": true
    }
  ],
  "bytecode": "0x60806040523480156200001157600080fd5b50620000be73ed2de21f55fb1c2fd8d56f1cf2a33998030dc9ac6040518060400160405280600f81526020016e4368726973746f732042616e64697360881b8152506040518060400160405280601481526020017f6368722e62616e64697340676d61696c2e636f6d00000000000000000000000081525064019fae7a636040518060400160405280600a8152602001690313939372d30322d32360b41b8152506200020060201b60201c565b6200015c73038573b4588805551f475d737dad9b91b5a170256040518060400160405280600d81526020016c41646d696e204e6f64654f6e6560981b8152506040518060400160405280601181526020017061646d696e406e6f64656f6e652e636f6d60781b8152506401a13b85ff6040518060400160405280600a815260200169313939372d30312d303160b01b8152506200020060201b60201c565b620001fa7386f565572b9331025cc5a0861cd6f4a3d7b134df6040518060400160405280600d81526020016c41646d696e204e6f646554776f60981b8152506040518060400160405280601181526020017061646d696e406e6f646574776f2e636f6d60781b81525064019b45a5006040518060400160405280600a815260200169189c9c9b96981896981960b11b8152506200020060201b60201c565b620004d2565b6001600160a01b038516600081815260016020819052604090912080546001600160a01b031916909217825501620002398582620003de565b506001600160a01b0385166000908152600160205260409020600201620002618482620003de565b506001600160a01b038516600090815260016020526040902060038101839055600401620002908282620003de565b506000805481526002602052604080822080546001600160a01b0319166001600160a01b038916179055815482529020600101620002cf8582620003de565b5060008054815260026020819052604090912001620002ef8482620003de565b50600080548152600260205260408082206003018490558154825290206004016200031b8282620003de565b506000805490806200032d83620004aa565b91905055505050505050565b634e487b7160e01b600052604160045260246000fd5b600181811c908216806200036457607f821691505b6020821081036200038557634e487b7160e01b600052602260045260246000fd5b50919050565b601f821115620003d957600081815260208120601f850160051c81016020861015620003b45750805b601f850160051c820191505b81811015620003d557828155600101620003c0565b5050505b505050565b81516001600160401b03811115620003fa57620003fa62000339565b62000412816200040b84546200034f565b846200038b565b602080601f8311600181146200044a5760008415620004315750858301515b600019600386901b1c1916600185901b178555620003d5565b600085815260208120601f198616915b828110156200047b578886015182559484019460019091019084016200045a565b50858210156200049a5787850151600019600388901b60f8161c191681555b5050505050600190811b01905550565b600060018201620004cb57634e487b7160e01b600052601160045260246000fd5b5060010190565b6111a280620004e26000396000f3fe608060405234801561001057600080fd5b50600436106100cf5760003560e01c80639330edcc1161008c578063b56d8d5a11610066578063b56d8d5a146101d9578063eb716a3e146101ec578063fea201bc146101f5578063ff2b61e6146101fe57600080fd5b80639330edcc146101925780639be2d095146101b3578063abfcd49a146101c657600080fd5b806327304dfd146100d45780632d150129146101015780633f307eff146101245780635a2ee8e914610139578063619308bc1461014c5780638d56b01f1461016c575b600080fd5b6100e76100e2366004610d00565b610211565b6040516100f8959493929190610d68565b60405180910390f35b61011461010f366004610dc4565b6103e3565b60405190151581526020016100f8565b610137610132366004610ddd565b610439565b005b6100e7610147366004610dc4565b61068c565b61015f61015a366004610d00565b6106b8565b6040516100f89190610e07565b61017f61017a366004610dc4565b610767565b6040516100f89796959493929190610e1a565b6101a56101a0366004610dc4565b61094d565b6040519081526020016100f8565b6101146101c1366004610d00565b61096e565b61017f6101d4366004610d00565b6109a5565b6101146101e7366004610d00565b6109d7565b6101a560035481565b6101a560005481565b61013761020c366004610f29565b610a01565b6001602081905260009182526040909120805491810180546001600160a01b039093169261023e90610fe6565b80601f016020809104026020016040519081016040528092919081815260200182805461026a90610fe6565b80156102b75780601f1061028c576101008083540402835291602001916102b7565b820191906000526020600020905b81548152906001019060200180831161029a57829003601f168201915b5050505050908060020180546102cc90610fe6565b80601f01602080910402602001604051908101604052809291908181526020018280546102f890610fe6565b80156103455780601f1061031a57610100808354040283529160200191610345565b820191906000526020600020905b81548152906001019060200180831161032857829003601f168201915b50505050509080600301549080600401805461036090610fe6565b80601f016020809104026020016040519081016040528092919081815260200182805461038c90610fe6565b80156103d95780601f106103ae576101008083540402835291602001916103d9565b820191906000526020600020905b8154815290600101906020018083116103bc57829003601f168201915b5050505050905085565b6000805b60045481101561043057826004828154811061040557610405611020565b90600052602060002001540361041e5750600192915050565b8061042881611036565b9150506103e7565b50600092915050565b336000818152600160205260409020546001600160a01b03161461049a5760405162461bcd60e51b8152602060048201526013602482015272165bdd48185c99481b9bdd08185b1b1bddd959606a1b60448201526064015b60405180910390fd5b6001600160a01b038216600081815260056020818152604080842080546001600160a01b031916815560018101859055815180840190925284825294909352526002909101906104ea90826110ac565b50604080516020808201835260008083526001600160a01b03861681526005909152919091206003019061051e90826110ac565b506001600160a01b038216600081815260056020818152604080842060048101859055815180840190925284825294909352819052919091019061056290826110ac565b506001600160a01b0382166000908152600560209081526040808320600690810180546001600160a01b031990811690915585855281845282852080549091168155600181018590558251808501909352848352938590529091526002909101906105cd90826110ac565b5060408051602080820183526000808352848152600690915291909120600301906105f890826110ac565b5060008181526006602081815260408084206004810185905581518084019092528482529385905291905260059091019061063390826110ac565b5060008181526006602081815260409283902090910180546001600160a01b03191690559051600181527f1aa27be1ef91eecc7cde7d46499e18fa3c5f5baaa5e2c3bb507fd916e319fb0a910160405180910390a15050565b600260205260009081526040902080546001820180546001600160a01b03909216929161023e90610fe6565b6001600160a01b03811660009081526005602052604090206002018054606091906106e290610fe6565b80601f016020809104026020016040519081016040528092919081815260200182805461070e90610fe6565b801561075b5780601f106107305761010080835404028352916020019161075b565b820191906000526020600020905b81548152906001019060200180831161073e57829003601f168201915b50505050509050919050565b6006602052600090815260409020805460018201546002830180546001600160a01b0390931693919261079990610fe6565b80601f01602080910402602001604051908101604052809291908181526020018280546107c590610fe6565b80156108125780601f106107e757610100808354040283529160200191610812565b820191906000526020600020905b8154815290600101906020018083116107f557829003601f168201915b50505050509080600301805461082790610fe6565b80601f016020809104026020016040519081016040528092919081815260200182805461085390610fe6565b80156108a05780601f10610875576101008083540402835291602001916108a0565b820191906000526020600020905b81548152906001019060200180831161088357829003601f168201915b5050505050908060040154908060050180546108bb90610fe6565b80601f01602080910402602001604051908101604052809291908181526020018280546108e790610fe6565b80156109345780601f1061090957610100808354040283529160200191610934565b820191906000526020600020905b81548152906001019060200180831161091757829003601f168201915b505050600690930154919250506001600160a01b031687565b6004818154811061095d57600080fd5b600091825260209091200154905081565b6001600160a01b038082166000818152600160205260408120549092160361099857506001919050565b506000919050565b919050565b6005602052600090815260409020805460018201546002830180546001600160a01b0390931693919261079990610fe6565b6001600160a01b038082166000818152600560205260408120549092160361099857506001919050565b336000818152600160205260409020546001600160a01b031614610a5d5760405162461bcd60e51b8152602060048201526013602482015272165bdd48185c99481b9bdd08185b1b1bddd959606a1b6044820152606401610491565b60038054906000610a6d83611036565b90915550506001600160a01b0380881660008181526005602052604090205490911614610cab57604051600081527f1449a2d4ef90bf92e0e53cf7388679c245c8b4ecc816d28d47e8f899a855d26d9060200160405180910390a16001600160a01b038716600081815260056020526040902080546001600160a01b031916909117815560018101879055600201610b0586826110ac565b506001600160a01b0387166000908152600560205260409020600301610b2b85826110ac565b506001600160a01b03871660009081526005602081905260409091206004810185905501610b5983826110ac565b506001600160a01b038088166000818152600560209081526040808320600690810180549688166001600160a01b03199788161790556003805485529252808320805490951690931790935582548152818120600101899055915482529020600201610bc586826110ac565b5060038054600090815260066020526040902001610be385826110ac565b50600380546000908152600660205260408082206004018690559154815220600501610c0f83826110ac565b50600354600090815260066020818152604080842090920180546001600160a01b0319166001600160a01b0386161790556004805460018181018355919094527f8a35acfbc15ff81a39ae7d344fd709f28e8600b4aa8c65c6b64bfe7fe36bd19b90930189905590519182527f1aa27be1ef91eecc7cde7d46499e18fa3c5f5baaa5e2c3bb507fd916e319fb0a910160405180910390a1610ce0565b604051600181527f1449a2d4ef90bf92e0e53cf7388679c245c8b4ecc816d28d47e8f899a855d26d9060200160405180910390a15b50505050505050565b80356001600160a01b03811681146109a057600080fd5b600060208284031215610d1257600080fd5b610d1b82610ce9565b9392505050565b6000815180845260005b81811015610d4857602081850181015186830182015201610d2c565b506000602082860101526020601f19601f83011685010191505092915050565b6001600160a01b038616815260a060208201819052600090610d8c90830187610d22565b8281036040840152610d9e8187610d22565b90508460608401528281036080840152610db88185610d22565b98975050505050505050565b600060208284031215610dd657600080fd5b5035919050565b60008060408385031215610df057600080fd5b610df983610ce9565b946020939093013593505050565b602081526000610d1b6020830184610d22565b600060018060a01b03808a16835288602084015260e06040840152610e4260e0840189610d22565b8381036060850152610e548189610d22565b905086608085015283810360a0850152610e6e8187610d22565b92505080841660c08401525098975050505050505050565b634e487b7160e01b600052604160045260246000fd5b600082601f830112610ead57600080fd5b813567ffffffffffffffff80821115610ec857610ec8610e86565b604051601f8301601f19908116603f01168101908282118183101715610ef057610ef0610e86565b81604052838152866020858801011115610f0957600080fd5b836020870160208301376000602085830101528094505050505092915050565b600080600080600080600060e0888a031215610f4457600080fd5b610f4d88610ce9565b965060208801359550604088013567ffffffffffffffff80821115610f7157600080fd5b610f7d8b838c01610e9c565b965060608a0135915080821115610f9357600080fd5b610f9f8b838c01610e9c565b955060808a0135945060a08a0135915080821115610fbc57600080fd5b50610fc98a828b01610e9c565b925050610fd860c08901610ce9565b905092959891949750929550565b600181811c90821680610ffa57607f821691505b60208210810361101a57634e487b7160e01b600052602260045260246000fd5b50919050565b634e487b7160e01b600052603260045260246000fd5b60006001820161105657634e487b7160e01b600052601160045260246000fd5b5060010190565b601f8211156110a757600081815260208120601f850160051c810160208610156110845750805b601f850160051c820191505b818110156110a357828155600101611090565b5050505b505050565b815167ffffffffffffffff8111156110c6576110c6610e86565b6110da816110d48454610fe6565b8461105d565b602080601f83116001811461110f57600084156110f75750858301515b600019600386901b1c1916600185901b1785556110a3565b600085815260208120601f198616915b8281101561113e5788860151825594840194600190910190840161111f565b508582101561115c5787850151600019600388901b60f8161c191681555b5050505050600190811b0190555056fea26469706673582212202359ab272133d41db7c235466249bdcc7932a7afe30b8bfc2100473975cc9b0d64736f6c63430008130033",
  "immutableReferences": {},
  "source": "// SPDX-License-Identifier: MIT\npragma solidity ^0.8.19;\n\nimport \"./Issued.sol\";\n\ncontract Investigator is Issued {\n\n    //Investigator counter\n    uint public investigatorCounter;\n    \n    //Array that keeps a history of the IDs assigned to investigators\n    uint[] public investigatorIdArray;\n\n    //Investigator info struct\n    struct InvestigatorInfo {\n        address walletAddress;\n        uint invId;\n        string fullName;\n        string email;\n        uint mobile;\n        string dob;\n        address issuedBy;\n    }\n\n    //Investigator lists\n    mapping (address => InvestigatorInfo) public investigatorList;\n    mapping (uint => InvestigatorInfo) public adminInvestigatorList; //This list is used by the admins to render every investigator info\n\n    //Events\n    event IsSuccessful(bool result);\n    event AddressExists(bool exists);\n\n    //Function to add an investigator, with the \"onlyAdmin\" modifier from \"Issued\" smart contract, which means that only an admin can interact with it\n    function addInvestigator (address _walletAddress, uint _invId, string memory _fullName, string memory _email, uint _mobile, string memory _dob, address _issuer) public onlyAdmin {\n        investigatorCounter++;    //Investigator counter starts with 1\n\n        if (investigatorList[_walletAddress].walletAddress != _walletAddress) {     //Investigator existence check by wallet address\n            emit AddressExists(false);\n            investigatorList[_walletAddress].walletAddress = _walletAddress;\n            investigatorList[_walletAddress].invId = _invId;\n            investigatorList[_walletAddress].fullName = _fullName;\n            investigatorList[_walletAddress].email = _email;\n            investigatorList[_walletAddress].mobile = _mobile;\n            investigatorList[_walletAddress].dob = _dob;\n            investigatorList[_walletAddress].issuedBy = _issuer;\n        \n            adminInvestigatorList[investigatorCounter].walletAddress = _walletAddress;\n            adminInvestigatorList[investigatorCounter].invId = _invId;\n            adminInvestigatorList[investigatorCounter].fullName = _fullName;\n            adminInvestigatorList[investigatorCounter].email = _email;\n            adminInvestigatorList[investigatorCounter].mobile = _mobile;\n            adminInvestigatorList[investigatorCounter].dob = _dob;\n            adminInvestigatorList[investigatorCounter].issuedBy = _issuer;\n\n            investigatorIdArray.push(_invId);   //Push investigator ID to the idArray\n            emit IsSuccessful(true);\n        } else {\n            emit AddressExists(true);\n        }\n    }\n\n    //Function which returns the name of a certain investigator\n    function getInvestigatorName (address _walletAddress) public view returns (string memory) {\n        return investigatorList[_walletAddress].fullName;\n    }\n\n    //Function to delete an investigator, with the \"onlyAdmin\" modifier from \"Issued\" smart contract, which means that only an admin can interact with it\n    function removeInvestigator(address _walletAddress, uint _invId) public onlyAdmin {\n        investigatorList[_walletAddress].walletAddress = 0x0000000000000000000000000000000000000000;\n        investigatorList[_walletAddress].invId = 0;                                     \n        investigatorList[_walletAddress].fullName = \"\";                     //In blockchain is impossible to delete something permanently, like in a traditional \n        investigatorList[_walletAddress].email = \"\";                        //databases. Instead, delete means to assign the default value in a variable. For example, \n        investigatorList[_walletAddress].mobile = 0;                        //the default value of a string variable is \"\" (empty) and of a uint is 0\n        investigatorList[_walletAddress].dob = \"\";\n        investigatorList[_walletAddress].issuedBy = 0x0000000000000000000000000000000000000000;\n\n        adminInvestigatorList[_invId].walletAddress = 0x0000000000000000000000000000000000000000;\n        adminInvestigatorList[_invId].invId = 0;\n        adminInvestigatorList[_invId].fullName = \"\";\n        adminInvestigatorList[_invId].email = \"\";\n        adminInvestigatorList[_invId].mobile = 0;\n        adminInvestigatorList[_invId].dob = \"\";\n        adminInvestigatorList[_invId].issuedBy = 0x0000000000000000000000000000000000000000;\n\n        emit IsSuccessful(true);\n    }\n\n    //Function to check if an investigator exists\n    function investigatorExists (address _walletAddress) public view returns (bool) {\n        if (investigatorList[_walletAddress].walletAddress == _walletAddress) {\n            return true;\n        } else {\n            return false;\n        }\n    }\n\n    //Function to check if an investigator 's ID in the IdArray\n    function invIdExists (uint _invId) public view returns (bool) {    \n        for (uint i = 0; i < investigatorIdArray.length; i++) {\n            if (investigatorIdArray[i] == _invId) {\n                return true;\n            } \n        }\n        return false;\n    }\n}",
  "sourcePath": "/Volumes/Tank/DIPLOMA/THEMIS APP/project/contracts/Investigator.sol",
  "compiler": {
    "name": "solc",
    "version": "0.8.19+commit.7dd6d404.Emscripten.clang"
  },
  "schemaVersion": "3.4.14",
  "updatedAt": "2023-08-08T14:57:31.456Z",
  "networkType": "ethereum",
  "devdoc": {
    "kind": "dev",
    "methods": {},
    "version": 1
  },
  "userdoc": {
    "kind": "user",
    "methods": {},
    "version": 1
  }
}