{
  "contractName": "Issued",
  "abi": [
    {
      "inputs": [],
      "stateMutability": "nonpayable",
      "type": "constructor"
    },
    {
      "inputs": [
        {
          "internalType": "uint256",
          "name": "",
          "type": "uint256"
        }
      ],
      "name": "adminCountList",
      "outputs": [
        {
          "internalType": "address",
          "name": "walletAddress",
          "type": "address"
        },
        {
          "internalType": "string",
          "name": "fullName",
          "type": "string"
        },
        {
          "internalType": "string",
          "name": "email",
          "type": "string"
        },
        {
          "internalType": "uint256",
          "name": "mobile",
          "type": "uint256"
        },
        {
          "internalType": "string",
          "name": "dob",
          "type": "string"
        }
      ],
      "stateMutability": "view",
      "type": "function",
      "constant": true
    },
    {
      "inputs": [],
      "name": "adminCounter",
      "outputs": [
        {
          "internalType": "uint256",
          "name": "",
          "type": "uint256"
        }
      ],
      "stateMutability": "view",
      "type": "function",
      "constant": true
    },
    {
      "inputs": [
        {
          "internalType": "address",
          "name": "",
          "type": "address"
        }
      ],
      "name": "adminList",
      "outputs": [
        {
          "internalType": "address",
          "name": "walletAddress",
          "type": "address"
        },
        {
          "internalType": "string",
          "name": "fullName",
          "type": "string"
        },
        {
          "internalType": "string",
          "name": "email",
          "type": "string"
        },
        {
          "internalType": "uint256",
          "name": "mobile",
          "type": "uint256"
        },
        {
          "internalType": "string",
          "name": "dob",
          "type": "string"
        }
      ],
      "stateMutability": "view",
      "type": "function",
      "constant": true
    },
    {
      "inputs": [
        {
          "internalType": "address",
          "name": "_walletAddress",
          "type": "address"
        }
      ],
      "name": "adminExists",
      "outputs": [
        {
          "internalType": "bool",
          "name": "",
          "type": "bool"
        }
      ],
      "stateMutability": "view",
      "type": "function",
      "constant": true
    }
  ],
  "bytecode": "0x608060405234801561001057600080fd5b506100bb73ed2de21f55fb1c2fd8d56f1cf2a33998030dc9ac6040518060400160405280600f81526020016e4368726973746f732042616e64697360881b8152506040518060400160405280601481526020017f6368722e62616e64697340676d61696c2e636f6d00000000000000000000000081525064019fae7a636040518060400160405280600a8152602001690313939372d30322d32360b41b8152506101f860201b60201c565b61015773038573b4588805551f475d737dad9b91b5a170256040518060400160405280600d81526020016c41646d696e204e6f64654f6e6560981b8152506040518060400160405280601181526020017061646d696e406e6f64656f6e652e636f6d60781b8152506401a13b85ff6040518060400160405280600a815260200169313939372d30312d303160b01b8152506101f860201b60201c565b6101f37386f565572b9331025cc5a0861cd6f4a3d7b134df6040518060400160405280600d81526020016c41646d696e204e6f646554776f60981b8152506040518060400160405280601181526020017061646d696e406e6f646574776f2e636f6d60781b81525064019b45a5006040518060400160405280600a815260200169189c9c9b96981896981960b11b8152506101f860201b60201c565b6104a8565b6001600160a01b038516600081815260016020819052604090912080546001600160a01b03191690921782550161022f85826103c2565b506001600160a01b038516600090815260016020526040902060020161025584826103c2565b506001600160a01b03851660009081526001602052604090206003810183905560040161028282826103c2565b506000805481526002602052604080822080546001600160a01b0319166001600160a01b0389161790558154825290206001016102bf85826103c2565b50600080548152600260208190526040909120016102dd84826103c2565b506000805481526002602052604080822060030184905581548252902060040161030782826103c2565b5060008054908061031783610481565b91905055505050505050565b634e487b7160e01b600052604160045260246000fd5b600181811c9082168061034d57607f821691505b60208210810361036d57634e487b7160e01b600052602260045260246000fd5b50919050565b601f8211156103bd57600081815260208120601f850160051c8101602086101561039a5750805b601f850160051c820191505b818110156103b9578281556001016103a6565b5050505b505050565b81516001600160401b038111156103db576103db610323565b6103ef816103e98454610339565b84610373565b602080601f831160018114610424576000841561040c5750858301515b600019600386901b1c1916600185901b1785556103b9565b600085815260208120601f198616915b8281101561045357888601518255948401946001909101908401610434565b50858210156104715787850151600019600388901b60f8161c191681555b5050505050600190811b01905550565b6000600182016104a157634e487b7160e01b600052601160045260246000fd5b5060010190565b610456806104b76000396000f3fe608060405234801561001057600080fd5b506004361061004c5760003560e01c806327304dfd146100515780635a2ee8e91461007e5780639be2d09514610091578063fea201bc146100b4575b600080fd5b61006461005f3660046102fb565b6100cb565b604051610075959493929190610371565b60405180910390f35b61006461008c3660046103cd565b61029d565b6100a461009f3660046102fb565b6102c9565b6040519015158152602001610075565b6100bd60005481565b604051908152602001610075565b6001602081905260009182526040909120805491810180546001600160a01b03909316926100f8906103e6565b80601f0160208091040260200160405190810160405280929190818152602001828054610124906103e6565b80156101715780601f1061014657610100808354040283529160200191610171565b820191906000526020600020905b81548152906001019060200180831161015457829003601f168201915b505050505090806002018054610186906103e6565b80601f01602080910402602001604051908101604052809291908181526020018280546101b2906103e6565b80156101ff5780601f106101d4576101008083540402835291602001916101ff565b820191906000526020600020905b8154815290600101906020018083116101e257829003601f168201915b50505050509080600301549080600401805461021a906103e6565b80601f0160208091040260200160405190810160405280929190818152602001828054610246906103e6565b80156102935780601f1061026857610100808354040283529160200191610293565b820191906000526020600020905b81548152906001019060200180831161027657829003601f168201915b5050505050905085565b600260205260009081526040902080546001820180546001600160a01b0390921692916100f8906103e6565b6001600160a01b03808216600081815260016020526040812054909216036102f357506001919050565b506000919050565b60006020828403121561030d57600080fd5b81356001600160a01b038116811461032457600080fd5b9392505050565b6000815180845260005b8181101561035157602081850181015186830182015201610335565b506000602082860101526020601f19601f83011685010191505092915050565b6001600160a01b038616815260a0602082018190526000906103959083018761032b565b82810360408401526103a7818761032b565b905084606084015282810360808401526103c1818561032b565b98975050505050505050565b6000602082840312156103df57600080fd5b5035919050565b600181811c908216806103fa57607f821691505b60208210810361041a57634e487b7160e01b600052602260045260246000fd5b5091905056fea26469706673582212203373e53af516b5f3c1d39e71b920cd64427c0f15e0363ed3e42a255ef4aebd0764736f6c63430008130033",
  "immutableReferences": {},
  "source": "// SPDX-License-Identifier: MIT\npragma solidity ^0.8.19;\n\ncontract Issued {\n\n    //Administrator counter\n    uint public adminCounter;\n\n    //Administrator info struct\n    struct AdminInfo {\n        address walletAddress;\n        string fullName;\n        string email;\n        uint mobile;\n        string dob;\n    }\n\n    //Administrator lists\n    mapping(address => AdminInfo) public adminList;\n    mapping(uint => AdminInfo) public adminCountList; //This list is used by the admins to render every administrator info\n\n    //Constructor used to create three administrators with the setAdminInfo() function. These addresses correspond to the authorized nodes of the private blockchain (ThemisChain)\n    constructor() {\n        setAdminInfo(0xEd2DE21F55Fb1c2Fd8d56f1Cf2A33998030dc9Ac, \"Christos Bandis\", \"chr.bandis@gmail.com\", 6973979235, \"1997-02-20\"); //Node 0\n        setAdminInfo(0x038573b4588805551f475d737Dad9b91b5a17025, \"Admin NodeOne\", \"admin@nodeone.com\", 6999999999, \"1997-01-01\"); //Node 1\n        setAdminInfo(0x86f565572b9331025CC5a0861cd6F4A3d7b134dF, \"Admin NodeTwo\", \"admin@nodetwo.com\", 6900000000, \"1997-01-02\"); //Node 2\n    }\n\n    //onlyAdmin modifier used in \"Investigator\" and \"Case\" smart contracts\n    modifier onlyAdmin() {\n        require(adminList[msg.sender].walletAddress == msg.sender, \"You are not allowed\");\n        _;\n    }\n\n    //Private function to add an administrator (can be called only within this smart contract)\n    function setAdminInfo (address _walletAddress, string memory _fullname, string memory _email, uint _mobile, string memory _dob) private {\n        adminList[_walletAddress].walletAddress = _walletAddress;\n        adminList[_walletAddress].fullName = _fullname;\n        adminList[_walletAddress].email = _email;\n        adminList[_walletAddress].mobile = _mobile;\n        adminList[_walletAddress].dob = _dob;\n\n        adminCountList[adminCounter].walletAddress = _walletAddress;\n        adminCountList[adminCounter].fullName = _fullname;\n        adminCountList[adminCounter].email = _email;\n        adminCountList[adminCounter].mobile = _mobile;\n        adminCountList[adminCounter].dob = _dob;\n\n        adminCounter++;\n    }\n\n    //Function to check if an administrator exists\n    function adminExists (address _walletAddress) public view returns (bool) {\n        if (adminList[_walletAddress].walletAddress == _walletAddress) {\n            return true;\n        } else {\n            return false;\n        }\n    }\n}",
  "sourcePath": "/Volumes/Tank/DIPLOMA/THEMIS APP/project/contracts/Issued.sol",
  "compiler": {
    "name": "solc",
    "version": "0.8.19+commit.7dd6d404.Emscripten.clang"
  },
  "schemaVersion": "3.4.14",
  "updatedAt": "2023-08-08T14:57:31.445Z",
  "networkType": "ethereum",
  "devdoc": {
    "kind": "dev",
    "methods": {},
    "version": 1
  },
  "userdoc": {
    "kind": "user",
    "methods": {},
    "version": 1
  }
}